{
  "contracts/PredictionMarket.sol": {
    "PredictionMarket": {
      "abi": [
        {
          "inputs": [
            {
              "internalType": "address",
              "name": "_oracle",
              "type": "address"
            }
          ],
          "stateMutability": "nonpayable",
          "type": "constructor"
        },
        {
          "inputs": [],
          "name": "PredictionMarket__CannotPlaceABet",
          "type": "error"
        },
        {
          "inputs": [],
          "name": "PredictionMarket__CannotWithdrawBeforeElectionFinishes",
          "type": "error"
        },
        {
          "inputs": [],
          "name": "PredictionMarket__DidNotPlaceBetOnWinner",
          "type": "error"
        },
        {
          "inputs": [],
          "name": "PredictionMarket__NotEnoughETHToPlaceABet",
          "type": "error"
        },
        {
          "inputs": [],
          "name": "PredictionMarket__OnlyRegisteredOracleAllowedToReturnResults",
          "type": "error"
        },
        {
          "inputs": [],
          "name": "PredictionMarket__TransferFailed",
          "type": "error"
        },
        {
          "inputs": [
            {
              "internalType": "string",
              "name": "",
              "type": "string"
            }
          ],
          "name": "bets",
          "outputs": [
            {
              "internalType": "uint256",
              "name": "",
              "type": "uint256"
            }
          ],
          "stateMutability": "view",
          "type": "function"
        },
        {
          "inputs": [
            {
              "internalType": "string",
              "name": "_side",
              "type": "string"
            }
          ],
          "name": "createBet",
          "outputs": [],
          "stateMutability": "payable",
          "type": "function"
        },
        {
          "inputs": [],
          "name": "electionFinished",
          "outputs": [
            {
              "internalType": "bool",
              "name": "",
              "type": "bool"
            }
          ],
          "stateMutability": "view",
          "type": "function"
        },
        {
          "inputs": [],
          "name": "getLooser",
          "outputs": [
            {
              "internalType": "string",
              "name": "",
              "type": "string"
            }
          ],
          "stateMutability": "view",
          "type": "function"
        },
        {
          "inputs": [],
          "name": "getWinner",
          "outputs": [
            {
              "internalType": "string",
              "name": "",
              "type": "string"
            }
          ],
          "stateMutability": "view",
          "type": "function"
        },
        {
          "inputs": [],
          "name": "looser",
          "outputs": [
            {
              "internalType": "string",
              "name": "",
              "type": "string"
            }
          ],
          "stateMutability": "view",
          "type": "function"
        },
        {
          "inputs": [],
          "name": "oracle",
          "outputs": [
            {
              "internalType": "address",
              "name": "",
              "type": "address"
            }
          ],
          "stateMutability": "view",
          "type": "function"
        },
        {
          "inputs": [
            {
              "internalType": "string",
              "name": "_winner",
              "type": "string"
            },
            {
              "internalType": "string",
              "name": "_looser",
              "type": "string"
            }
          ],
          "name": "reportResultsOfElection",
          "outputs": [],
          "stateMutability": "nonpayable",
          "type": "function"
        },
        {
          "inputs": [],
          "name": "winner",
          "outputs": [
            {
              "internalType": "string",
              "name": "",
              "type": "string"
            }
          ],
          "stateMutability": "view",
          "type": "function"
        },
        {
          "inputs": [],
          "name": "withdrawGain",
          "outputs": [],
          "stateMutability": "nonpayable",
          "type": "function"
        }
      ],
      "devdoc": {
        "kind": "dev",
        "methods": {},
        "version": 1
      },
      "evm": {
        "bytecode": {
          "linkReferences": {},
          "object": "60806040523480156200001157600080fd5b506040516200122f3803806200122f8339818101604052810190620000379190620000af565b806000806101000a81548173ffffffffffffffffffffffffffffffffffffffff021916908373ffffffffffffffffffffffffffffffffffffffff16021790555060008060146101000a81548160ff0219169083151502179055505062000134565b600081519050620000a9816200011a565b92915050565b600060208284031215620000c857620000c762000115565b5b6000620000d88482850162000098565b91505092915050565b6000620000ee82620000f5565b9050919050565b600073ffffffffffffffffffffffffffffffffffffffff82169050919050565b600080fd5b6200012581620000e1565b81146200013157600080fd5b50565b6110eb80620001446000396000f3fe6080604052600436106100915760003560e01c80638e7ea5b2116100595780638e7ea5b214610169578063b2089d9d14610194578063b3a23578146101bf578063beab6e7e146101db578063dfbf53ae1461020657610091565b806325d64246146100965780632b539c86146100bf578063640e48f6146100d65780637dc0d1d01461010157806380f3d9d51461012c575b600080fd5b3480156100a257600080fd5b506100bd60048036038101906100b89190610aff565b610231565b005b3480156100cb57600080fd5b506100d4610303565b005b3480156100e257600080fd5b506100eb6105d3565b6040516100f89190610d29565b60405180910390f35b34801561010d57600080fd5b50610116610661565b6040516101239190610cf3565b60405180910390f35b34801561013857600080fd5b50610153600480360381019061014e9190610ab6565b610685565b6040516101609190610d4b565b60405180910390f35b34801561017557600080fd5b5061017e6106b3565b60405161018b9190610d29565b60405180910390f35b3480156101a057600080fd5b506101a9610745565b6040516101b69190610d29565b60405180910390f35b6101d960048036038101906101d49190610ab6565b6107d7565b005b3480156101e757600080fd5b506101f0610902565b6040516101fd9190610d0e565b60405180910390f35b34801561021257600080fd5b5061021b610915565b6040516102289190610d29565b60405180910390f35b60008054906101000a900473ffffffffffffffffffffffffffffffffffffffff1673ffffffffffffffffffffffffffffffffffffffff163373ffffffffffffffffffffffffffffffffffffffff16146102b6576040517f180a70c200000000000000000000000000000000000000000000000000000000815260040160405180910390fd5b81600390805190602001906102cc9291906109a3565b5080600490805190602001906102e39291906109a3565b506001600060146101000a81548160ff0219169083151502179055505050565b6000600260003373ffffffffffffffffffffffffffffffffffffffff1673ffffffffffffffffffffffffffffffffffffffff16815260200190815260200160002060036040516103539190610cc7565b90815260200160405180910390205490506000811161039e576040517f6625fed400000000000000000000000000000000000000000000000000000000815260040160405180910390fd5b600060149054906101000a900460ff166103e4576040517fbbbc58ae00000000000000000000000000000000000000000000000000000000815260040160405180910390fd5b6000600160036040516103f79190610cc7565b90815260200160405180910390205482600160046040516104189190610cc7565b908152602001604051809103902054600160036040516104389190610cc7565b9081526020016040518091039020546104519190610e03565b61045b9190610e8a565b6104659190610e59565b90506000600260003373ffffffffffffffffffffffffffffffffffffffff1673ffffffffffffffffffffffffffffffffffffffff16815260200190815260200160002060036040516104b79190610cc7565b9081526020016040518091039020819055506000600260003373ffffffffffffffffffffffffffffffffffffffff1673ffffffffffffffffffffffffffffffffffffffff16815260200190815260200160002060046040516105199190610cc7565b90815260200160405180910390208190555060003373ffffffffffffffffffffffffffffffffffffffff168260405161055190610cde565b60006040518083038185875af1925050503d806000811461058e576040519150601f19603f3d011682016040523d82523d6000602084013e610593565b606091505b50509050806105ce576040517f6ef66bc400000000000000000000000000000000000000000000000000000000815260040160405180910390fd5b505050565b600480546105e090610f6e565b80601f016020809104026020016040519081016040528092919081815260200182805461060c90610f6e565b80156106595780601f1061062e57610100808354040283529160200191610659565b820191906000526020600020905b81548152906001019060200180831161063c57829003601f168201915b505050505081565b60008054906101000a900473ffffffffffffffffffffffffffffffffffffffff1681565b6001818051602081018201805184825260208301602085012081835280955050505050506000915090505481565b6060600380546106c290610f6e565b80601f01602080910402602001604051908101604052809291908181526020018280546106ee90610f6e565b801561073b5780601f106107105761010080835404028352916020019161073b565b820191906000526020600020905b81548152906001019060200180831161071e57829003601f168201915b5050505050905090565b60606004805461075490610f6e565b80601f016020809104026020016040519081016040528092919081815260200182805461078090610f6e565b80156107cd5780601f106107a2576101008083540402835291602001916107cd565b820191906000526020600020905b8154815290600101906020018083116107b057829003601f168201915b5050505050905090565b600060149054906101000a900460ff161561081e576040517ff2d1dfa100000000000000000000000000000000000000000000000000000000815260040160405180910390fd5b60003411610858576040517fbcee5a8500000000000000000000000000000000000000000000000000000000815260040160405180910390fd5b346001826040516108699190610cb0565b908152602001604051809103902060008282546108869190610e03565b9250508190555034600260003373ffffffffffffffffffffffffffffffffffffffff1673ffffffffffffffffffffffffffffffffffffffff168152602001908152602001600020826040516108db9190610cb0565b908152602001604051809103902060008282546108f89190610e03565b9250508190555050565b600060149054906101000a900460ff1681565b6003805461092290610f6e565b80601f016020809104026020016040519081016040528092919081815260200182805461094e90610f6e565b801561099b5780601f106109705761010080835404028352916020019161099b565b820191906000526020600020905b81548152906001019060200180831161097e57829003601f168201915b505050505081565b8280546109af90610f6e565b90600052602060002090601f0160209004810192826109d15760008555610a18565b82601f106109ea57805160ff1916838001178555610a18565b82800160010185558215610a18579182015b82811115610a175782518255916020019190600101906109fc565b5b509050610a259190610a29565b5090565b5b80821115610a42576000816000905550600101610a2a565b5090565b6000610a59610a5484610d8b565b610d66565b905082815260208101848484011115610a7557610a74611092565b5b610a80848285610f2c565b509392505050565b600082601f830112610a9d57610a9c61108d565b5b8135610aad848260208601610a46565b91505092915050565b600060208284031215610acc57610acb61109c565b5b600082013567ffffffffffffffff811115610aea57610ae9611097565b5b610af684828501610a88565b91505092915050565b60008060408385031215610b1657610b1561109c565b5b600083013567ffffffffffffffff811115610b3457610b33611097565b5b610b4085828601610a88565b925050602083013567ffffffffffffffff811115610b6157610b60611097565b5b610b6d85828601610a88565b9150509250929050565b610b8081610ee4565b82525050565b610b8f81610ef6565b82525050565b6000610ba082610dd1565b610baa8185610de7565b9350610bba818560208601610f3b565b610bc3816110a1565b840191505092915050565b6000610bd982610dd1565b610be38185610df8565b9350610bf3818560208601610f3b565b80840191505092915050565b60008154610c0c81610f6e565b610c168186610df8565b94506001821660008114610c315760018114610c4257610c75565b60ff19831686528186019350610c75565b610c4b85610dbc565b60005b83811015610c6d57815481890152600182019150602081019050610c4e565b838801955050505b50505092915050565b6000610c8b600083610ddc565b9150610c96826110b2565b600082019050919050565b610caa81610f22565b82525050565b6000610cbc8284610bce565b915081905092915050565b6000610cd38284610bff565b915081905092915050565b6000610ce982610c7e565b9150819050919050565b6000602082019050610d086000830184610b77565b92915050565b6000602082019050610d236000830184610b86565b92915050565b60006020820190508181036000830152610d438184610b95565b905092915050565b6000602082019050610d606000830184610ca1565b92915050565b6000610d70610d81565b9050610d7c8282610fa0565b919050565b6000604051905090565b600067ffffffffffffffff821115610da657610da561105e565b5b610daf826110a1565b9050602081019050919050565b60008190508160005260206000209050919050565b600081519050919050565b600081905092915050565b600082825260208201905092915050565b600081905092915050565b6000610e0e82610f22565b9150610e1983610f22565b9250827fffffffffffffffffffffffffffffffffffffffffffffffffffffffffffffffff03821115610e4e57610e4d610fd1565b5b828201905092915050565b6000610e6482610f22565b9150610e6f83610f22565b925082610e7f57610e7e611000565b5b828204905092915050565b6000610e9582610f22565b9150610ea083610f22565b9250817fffffffffffffffffffffffffffffffffffffffffffffffffffffffffffffffff0483118215151615610ed957610ed8610fd1565b5b828202905092915050565b6000610eef82610f02565b9050919050565b60008115159050919050565b600073ffffffffffffffffffffffffffffffffffffffff82169050919050565b6000819050919050565b82818337600083830152505050565b60005b83811015610f59578082015181840152602081019050610f3e565b83811115610f68576000848401525b50505050565b60006002820490506001821680610f8657607f821691505b60208210811415610f9a57610f9961102f565b5b50919050565b610fa9826110a1565b810181811067ffffffffffffffff82111715610fc857610fc761105e565b5b80604052505050565b7f4e487b7100000000000000000000000000000000000000000000000000000000600052601160045260246000fd5b7f4e487b7100000000000000000000000000000000000000000000000000000000600052601260045260246000fd5b7f4e487b7100000000000000000000000000000000000000000000000000000000600052602260045260246000fd5b7f4e487b7100000000000000000000000000000000000000000000000000000000600052604160045260246000fd5b600080fd5b600080fd5b600080fd5b600080fd5b6000601f19601f8301169050919050565b5056fea264697066735822122004f7e893cb794ab67cd79daf831928d3febf9d8e8c70c15eb2fd530f8894fb7464736f6c63430008050033",
          "opcodes": "PUSH1 0x80 PUSH1 0x40 MSTORE CALLVALUE DUP1 ISZERO PUSH3 0x11 JUMPI PUSH1 0x0 DUP1 REVERT JUMPDEST POP PUSH1 0x40 MLOAD PUSH3 0x122F CODESIZE SUB DUP1 PUSH3 0x122F DUP4 CODECOPY DUP2 DUP2 ADD PUSH1 0x40 MSTORE DUP2 ADD SWAP1 PUSH3 0x37 SWAP2 SWAP1 PUSH3 0xAF JUMP JUMPDEST DUP1 PUSH1 0x0 DUP1 PUSH2 0x100 EXP DUP2 SLOAD DUP2 PUSH20 0xFFFFFFFFFFFFFFFFFFFFFFFFFFFFFFFFFFFFFFFF MUL NOT AND SWAP1 DUP4 PUSH20 0xFFFFFFFFFFFFFFFFFFFFFFFFFFFFFFFFFFFFFFFF AND MUL OR SWAP1 SSTORE POP PUSH1 0x0 DUP1 PUSH1 0x14 PUSH2 0x100 EXP DUP2 SLOAD DUP2 PUSH1 0xFF MUL NOT AND SWAP1 DUP4 ISZERO ISZERO MUL OR SWAP1 SSTORE POP POP PUSH3 0x134 JUMP JUMPDEST PUSH1 0x0 DUP2 MLOAD SWAP1 POP PUSH3 0xA9 DUP2 PUSH3 0x11A JUMP JUMPDEST SWAP3 SWAP2 POP POP JUMP JUMPDEST PUSH1 0x0 PUSH1 0x20 DUP3 DUP5 SUB SLT ISZERO PUSH3 0xC8 JUMPI PUSH3 0xC7 PUSH3 0x115 JUMP JUMPDEST JUMPDEST PUSH1 0x0 PUSH3 0xD8 DUP5 DUP3 DUP6 ADD PUSH3 0x98 JUMP JUMPDEST SWAP2 POP POP SWAP3 SWAP2 POP POP JUMP JUMPDEST PUSH1 0x0 PUSH3 0xEE DUP3 PUSH3 0xF5 JUMP JUMPDEST SWAP1 POP SWAP2 SWAP1 POP JUMP JUMPDEST PUSH1 0x0 PUSH20 0xFFFFFFFFFFFFFFFFFFFFFFFFFFFFFFFFFFFFFFFF DUP3 AND SWAP1 POP SWAP2 SWAP1 POP JUMP JUMPDEST PUSH1 0x0 DUP1 REVERT JUMPDEST PUSH3 0x125 DUP2 PUSH3 0xE1 JUMP JUMPDEST DUP2 EQ PUSH3 0x131 JUMPI PUSH1 0x0 DUP1 REVERT JUMPDEST POP JUMP JUMPDEST PUSH2 0x10EB DUP1 PUSH3 0x144 PUSH1 0x0 CODECOPY PUSH1 0x0 RETURN INVALID PUSH1 0x80 PUSH1 0x40 MSTORE PUSH1 0x4 CALLDATASIZE LT PUSH2 0x91 JUMPI PUSH1 0x0 CALLDATALOAD PUSH1 0xE0 SHR DUP1 PUSH4 0x8E7EA5B2 GT PUSH2 0x59 JUMPI DUP1 PUSH4 0x8E7EA5B2 EQ PUSH2 0x169 JUMPI DUP1 PUSH4 0xB2089D9D EQ PUSH2 0x194 JUMPI DUP1 PUSH4 0xB3A23578 EQ PUSH2 0x1BF JUMPI DUP1 PUSH4 0xBEAB6E7E EQ PUSH2 0x1DB JUMPI DUP1 PUSH4 0xDFBF53AE EQ PUSH2 0x206 JUMPI PUSH2 0x91 JUMP JUMPDEST DUP1 PUSH4 0x25D64246 EQ PUSH2 0x96 JUMPI DUP1 PUSH4 0x2B539C86 EQ PUSH2 0xBF JUMPI DUP1 PUSH4 0x640E48F6 EQ PUSH2 0xD6 JUMPI DUP1 PUSH4 0x7DC0D1D0 EQ PUSH2 0x101 JUMPI DUP1 PUSH4 0x80F3D9D5 EQ PUSH2 0x12C JUMPI JUMPDEST PUSH1 0x0 DUP1 REVERT JUMPDEST CALLVALUE DUP1 ISZERO PUSH2 0xA2 JUMPI PUSH1 0x0 DUP1 REVERT JUMPDEST POP PUSH2 0xBD PUSH1 0x4 DUP1 CALLDATASIZE SUB DUP2 ADD SWAP1 PUSH2 0xB8 SWAP2 SWAP1 PUSH2 0xAFF JUMP JUMPDEST PUSH2 0x231 JUMP JUMPDEST STOP JUMPDEST CALLVALUE DUP1 ISZERO PUSH2 0xCB JUMPI PUSH1 0x0 DUP1 REVERT JUMPDEST POP PUSH2 0xD4 PUSH2 0x303 JUMP JUMPDEST STOP JUMPDEST CALLVALUE DUP1 ISZERO PUSH2 0xE2 JUMPI PUSH1 0x0 DUP1 REVERT JUMPDEST POP PUSH2 0xEB PUSH2 0x5D3 JUMP JUMPDEST PUSH1 0x40 MLOAD PUSH2 0xF8 SWAP2 SWAP1 PUSH2 0xD29 JUMP JUMPDEST PUSH1 0x40 MLOAD DUP1 SWAP2 SUB SWAP1 RETURN JUMPDEST CALLVALUE DUP1 ISZERO PUSH2 0x10D JUMPI PUSH1 0x0 DUP1 REVERT JUMPDEST POP PUSH2 0x116 PUSH2 0x661 JUMP JUMPDEST PUSH1 0x40 MLOAD PUSH2 0x123 SWAP2 SWAP1 PUSH2 0xCF3 JUMP JUMPDEST PUSH1 0x40 MLOAD DUP1 SWAP2 SUB SWAP1 RETURN JUMPDEST CALLVALUE DUP1 ISZERO PUSH2 0x138 JUMPI PUSH1 0x0 DUP1 REVERT JUMPDEST POP PUSH2 0x153 PUSH1 0x4 DUP1 CALLDATASIZE SUB DUP2 ADD SWAP1 PUSH2 0x14E SWAP2 SWAP1 PUSH2 0xAB6 JUMP JUMPDEST PUSH2 0x685 JUMP JUMPDEST PUSH1 0x40 MLOAD PUSH2 0x160 SWAP2 SWAP1 PUSH2 0xD4B JUMP JUMPDEST PUSH1 0x40 MLOAD DUP1 SWAP2 SUB SWAP1 RETURN JUMPDEST CALLVALUE DUP1 ISZERO PUSH2 0x175 JUMPI PUSH1 0x0 DUP1 REVERT JUMPDEST POP PUSH2 0x17E PUSH2 0x6B3 JUMP JUMPDEST PUSH1 0x40 MLOAD PUSH2 0x18B SWAP2 SWAP1 PUSH2 0xD29 JUMP JUMPDEST PUSH1 0x40 MLOAD DUP1 SWAP2 SUB SWAP1 RETURN JUMPDEST CALLVALUE DUP1 ISZERO PUSH2 0x1A0 JUMPI PUSH1 0x0 DUP1 REVERT JUMPDEST POP PUSH2 0x1A9 PUSH2 0x745 JUMP JUMPDEST PUSH1 0x40 MLOAD PUSH2 0x1B6 SWAP2 SWAP1 PUSH2 0xD29 JUMP JUMPDEST PUSH1 0x40 MLOAD DUP1 SWAP2 SUB SWAP1 RETURN JUMPDEST PUSH2 0x1D9 PUSH1 0x4 DUP1 CALLDATASIZE SUB DUP2 ADD SWAP1 PUSH2 0x1D4 SWAP2 SWAP1 PUSH2 0xAB6 JUMP JUMPDEST PUSH2 0x7D7 JUMP JUMPDEST STOP JUMPDEST CALLVALUE DUP1 ISZERO PUSH2 0x1E7 JUMPI PUSH1 0x0 DUP1 REVERT JUMPDEST POP PUSH2 0x1F0 PUSH2 0x902 JUMP JUMPDEST PUSH1 0x40 MLOAD PUSH2 0x1FD SWAP2 SWAP1 PUSH2 0xD0E JUMP JUMPDEST PUSH1 0x40 MLOAD DUP1 SWAP2 SUB SWAP1 RETURN JUMPDEST CALLVALUE DUP1 ISZERO PUSH2 0x212 JUMPI PUSH1 0x0 DUP1 REVERT JUMPDEST POP PUSH2 0x21B PUSH2 0x915 JUMP JUMPDEST PUSH1 0x40 MLOAD PUSH2 0x228 SWAP2 SWAP1 PUSH2 0xD29 JUMP JUMPDEST PUSH1 0x40 MLOAD DUP1 SWAP2 SUB SWAP1 RETURN JUMPDEST PUSH1 0x0 DUP1 SLOAD SWAP1 PUSH2 0x100 EXP SWAP1 DIV PUSH20 0xFFFFFFFFFFFFFFFFFFFFFFFFFFFFFFFFFFFFFFFF AND PUSH20 0xFFFFFFFFFFFFFFFFFFFFFFFFFFFFFFFFFFFFFFFF AND CALLER PUSH20 0xFFFFFFFFFFFFFFFFFFFFFFFFFFFFFFFFFFFFFFFF AND EQ PUSH2 0x2B6 JUMPI PUSH1 0x40 MLOAD PUSH32 0x180A70C200000000000000000000000000000000000000000000000000000000 DUP2 MSTORE PUSH1 0x4 ADD PUSH1 0x40 MLOAD DUP1 SWAP2 SUB SWAP1 REVERT JUMPDEST DUP2 PUSH1 0x3 SWAP1 DUP1 MLOAD SWAP1 PUSH1 0x20 ADD SWAP1 PUSH2 0x2CC SWAP3 SWAP2 SWAP1 PUSH2 0x9A3 JUMP JUMPDEST POP DUP1 PUSH1 0x4 SWAP1 DUP1 MLOAD SWAP1 PUSH1 0x20 ADD SWAP1 PUSH2 0x2E3 SWAP3 SWAP2 SWAP1 PUSH2 0x9A3 JUMP JUMPDEST POP PUSH1 0x1 PUSH1 0x0 PUSH1 0x14 PUSH2 0x100 EXP DUP2 SLOAD DUP2 PUSH1 0xFF MUL NOT AND SWAP1 DUP4 ISZERO ISZERO MUL OR SWAP1 SSTORE POP POP POP JUMP JUMPDEST PUSH1 0x0 PUSH1 0x2 PUSH1 0x0 CALLER PUSH20 0xFFFFFFFFFFFFFFFFFFFFFFFFFFFFFFFFFFFFFFFF AND PUSH20 0xFFFFFFFFFFFFFFFFFFFFFFFFFFFFFFFFFFFFFFFF AND DUP2 MSTORE PUSH1 0x20 ADD SWAP1 DUP2 MSTORE PUSH1 0x20 ADD PUSH1 0x0 KECCAK256 PUSH1 0x3 PUSH1 0x40 MLOAD PUSH2 0x353 SWAP2 SWAP1 PUSH2 0xCC7 JUMP JUMPDEST SWAP1 DUP2 MSTORE PUSH1 0x20 ADD PUSH1 0x40 MLOAD DUP1 SWAP2 SUB SWAP1 KECCAK256 SLOAD SWAP1 POP PUSH1 0x0 DUP2 GT PUSH2 0x39E JUMPI PUSH1 0x40 MLOAD PUSH32 0x6625FED400000000000000000000000000000000000000000000000000000000 DUP2 MSTORE PUSH1 0x4 ADD PUSH1 0x40 MLOAD DUP1 SWAP2 SUB SWAP1 REVERT JUMPDEST PUSH1 0x0 PUSH1 0x14 SWAP1 SLOAD SWAP1 PUSH2 0x100 EXP SWAP1 DIV PUSH1 0xFF AND PUSH2 0x3E4 JUMPI PUSH1 0x40 MLOAD PUSH32 0xBBBC58AE00000000000000000000000000000000000000000000000000000000 DUP2 MSTORE PUSH1 0x4 ADD PUSH1 0x40 MLOAD DUP1 SWAP2 SUB SWAP1 REVERT JUMPDEST PUSH1 0x0 PUSH1 0x1 PUSH1 0x3 PUSH1 0x40 MLOAD PUSH2 0x3F7 SWAP2 SWAP1 PUSH2 0xCC7 JUMP JUMPDEST SWAP1 DUP2 MSTORE PUSH1 0x20 ADD PUSH1 0x40 MLOAD DUP1 SWAP2 SUB SWAP1 KECCAK256 SLOAD DUP3 PUSH1 0x1 PUSH1 0x4 PUSH1 0x40 MLOAD PUSH2 0x418 SWAP2 SWAP1 PUSH2 0xCC7 JUMP JUMPDEST SWAP1 DUP2 MSTORE PUSH1 0x20 ADD PUSH1 0x40 MLOAD DUP1 SWAP2 SUB SWAP1 KECCAK256 SLOAD PUSH1 0x1 PUSH1 0x3 PUSH1 0x40 MLOAD PUSH2 0x438 SWAP2 SWAP1 PUSH2 0xCC7 JUMP JUMPDEST SWAP1 DUP2 MSTORE PUSH1 0x20 ADD PUSH1 0x40 MLOAD DUP1 SWAP2 SUB SWAP1 KECCAK256 SLOAD PUSH2 0x451 SWAP2 SWAP1 PUSH2 0xE03 JUMP JUMPDEST PUSH2 0x45B SWAP2 SWAP1 PUSH2 0xE8A JUMP JUMPDEST PUSH2 0x465 SWAP2 SWAP1 PUSH2 0xE59 JUMP JUMPDEST SWAP1 POP PUSH1 0x0 PUSH1 0x2 PUSH1 0x0 CALLER PUSH20 0xFFFFFFFFFFFFFFFFFFFFFFFFFFFFFFFFFFFFFFFF AND PUSH20 0xFFFFFFFFFFFFFFFFFFFFFFFFFFFFFFFFFFFFFFFF AND DUP2 MSTORE PUSH1 0x20 ADD SWAP1 DUP2 MSTORE PUSH1 0x20 ADD PUSH1 0x0 KECCAK256 PUSH1 0x3 PUSH1 0x40 MLOAD PUSH2 0x4B7 SWAP2 SWAP1 PUSH2 0xCC7 JUMP JUMPDEST SWAP1 DUP2 MSTORE PUSH1 0x20 ADD PUSH1 0x40 MLOAD DUP1 SWAP2 SUB SWAP1 KECCAK256 DUP2 SWAP1 SSTORE POP PUSH1 0x0 PUSH1 0x2 PUSH1 0x0 CALLER PUSH20 0xFFFFFFFFFFFFFFFFFFFFFFFFFFFFFFFFFFFFFFFF AND PUSH20 0xFFFFFFFFFFFFFFFFFFFFFFFFFFFFFFFFFFFFFFFF AND DUP2 MSTORE PUSH1 0x20 ADD SWAP1 DUP2 MSTORE PUSH1 0x20 ADD PUSH1 0x0 KECCAK256 PUSH1 0x4 PUSH1 0x40 MLOAD PUSH2 0x519 SWAP2 SWAP1 PUSH2 0xCC7 JUMP JUMPDEST SWAP1 DUP2 MSTORE PUSH1 0x20 ADD PUSH1 0x40 MLOAD DUP1 SWAP2 SUB SWAP1 KECCAK256 DUP2 SWAP1 SSTORE POP PUSH1 0x0 CALLER PUSH20 0xFFFFFFFFFFFFFFFFFFFFFFFFFFFFFFFFFFFFFFFF AND DUP3 PUSH1 0x40 MLOAD PUSH2 0x551 SWAP1 PUSH2 0xCDE JUMP JUMPDEST PUSH1 0x0 PUSH1 0x40 MLOAD DUP1 DUP4 SUB DUP2 DUP6 DUP8 GAS CALL SWAP3 POP POP POP RETURNDATASIZE DUP1 PUSH1 0x0 DUP2 EQ PUSH2 0x58E JUMPI PUSH1 0x40 MLOAD SWAP2 POP PUSH1 0x1F NOT PUSH1 0x3F RETURNDATASIZE ADD AND DUP3 ADD PUSH1 0x40 MSTORE RETURNDATASIZE DUP3 MSTORE RETURNDATASIZE PUSH1 0x0 PUSH1 0x20 DUP5 ADD RETURNDATACOPY PUSH2 0x593 JUMP JUMPDEST PUSH1 0x60 SWAP2 POP JUMPDEST POP POP SWAP1 POP DUP1 PUSH2 0x5CE JUMPI PUSH1 0x40 MLOAD PUSH32 0x6EF66BC400000000000000000000000000000000000000000000000000000000 DUP2 MSTORE PUSH1 0x4 ADD PUSH1 0x40 MLOAD DUP1 SWAP2 SUB SWAP1 REVERT JUMPDEST POP POP POP JUMP JUMPDEST PUSH1 0x4 DUP1 SLOAD PUSH2 0x5E0 SWAP1 PUSH2 0xF6E JUMP JUMPDEST DUP1 PUSH1 0x1F ADD PUSH1 0x20 DUP1 SWAP2 DIV MUL PUSH1 0x20 ADD PUSH1 0x40 MLOAD SWAP1 DUP2 ADD PUSH1 0x40 MSTORE DUP1 SWAP3 SWAP2 SWAP1 DUP2 DUP2 MSTORE PUSH1 0x20 ADD DUP3 DUP1 SLOAD PUSH2 0x60C SWAP1 PUSH2 0xF6E JUMP JUMPDEST DUP1 ISZERO PUSH2 0x659 JUMPI DUP1 PUSH1 0x1F LT PUSH2 0x62E JUMPI PUSH2 0x100 DUP1 DUP4 SLOAD DIV MUL DUP4 MSTORE SWAP2 PUSH1 0x20 ADD SWAP2 PUSH2 0x659 JUMP JUMPDEST DUP3 ADD SWAP2 SWAP1 PUSH1 0x0 MSTORE PUSH1 0x20 PUSH1 0x0 KECCAK256 SWAP1 JUMPDEST DUP2 SLOAD DUP2 MSTORE SWAP1 PUSH1 0x1 ADD SWAP1 PUSH1 0x20 ADD DUP1 DUP4 GT PUSH2 0x63C JUMPI DUP3 SWAP1 SUB PUSH1 0x1F AND DUP3 ADD SWAP2 JUMPDEST POP POP POP POP POP DUP2 JUMP JUMPDEST PUSH1 0x0 DUP1 SLOAD SWAP1 PUSH2 0x100 EXP SWAP1 DIV PUSH20 0xFFFFFFFFFFFFFFFFFFFFFFFFFFFFFFFFFFFFFFFF AND DUP2 JUMP JUMPDEST PUSH1 0x1 DUP2 DUP1 MLOAD PUSH1 0x20 DUP2 ADD DUP3 ADD DUP1 MLOAD DUP5 DUP3 MSTORE PUSH1 0x20 DUP4 ADD PUSH1 0x20 DUP6 ADD KECCAK256 DUP2 DUP4 MSTORE DUP1 SWAP6 POP POP POP POP POP POP PUSH1 0x0 SWAP2 POP SWAP1 POP SLOAD DUP2 JUMP JUMPDEST PUSH1 0x60 PUSH1 0x3 DUP1 SLOAD PUSH2 0x6C2 SWAP1 PUSH2 0xF6E JUMP JUMPDEST DUP1 PUSH1 0x1F ADD PUSH1 0x20 DUP1 SWAP2 DIV MUL PUSH1 0x20 ADD PUSH1 0x40 MLOAD SWAP1 DUP2 ADD PUSH1 0x40 MSTORE DUP1 SWAP3 SWAP2 SWAP1 DUP2 DUP2 MSTORE PUSH1 0x20 ADD DUP3 DUP1 SLOAD PUSH2 0x6EE SWAP1 PUSH2 0xF6E JUMP JUMPDEST DUP1 ISZERO PUSH2 0x73B JUMPI DUP1 PUSH1 0x1F LT PUSH2 0x710 JUMPI PUSH2 0x100 DUP1 DUP4 SLOAD DIV MUL DUP4 MSTORE SWAP2 PUSH1 0x20 ADD SWAP2 PUSH2 0x73B JUMP JUMPDEST DUP3 ADD SWAP2 SWAP1 PUSH1 0x0 MSTORE PUSH1 0x20 PUSH1 0x0 KECCAK256 SWAP1 JUMPDEST DUP2 SLOAD DUP2 MSTORE SWAP1 PUSH1 0x1 ADD SWAP1 PUSH1 0x20 ADD DUP1 DUP4 GT PUSH2 0x71E JUMPI DUP3 SWAP1 SUB PUSH1 0x1F AND DUP3 ADD SWAP2 JUMPDEST POP POP POP POP POP SWAP1 POP SWAP1 JUMP JUMPDEST PUSH1 0x60 PUSH1 0x4 DUP1 SLOAD PUSH2 0x754 SWAP1 PUSH2 0xF6E JUMP JUMPDEST DUP1 PUSH1 0x1F ADD PUSH1 0x20 DUP1 SWAP2 DIV MUL PUSH1 0x20 ADD PUSH1 0x40 MLOAD SWAP1 DUP2 ADD PUSH1 0x40 MSTORE DUP1 SWAP3 SWAP2 SWAP1 DUP2 DUP2 MSTORE PUSH1 0x20 ADD DUP3 DUP1 SLOAD PUSH2 0x780 SWAP1 PUSH2 0xF6E JUMP JUMPDEST DUP1 ISZERO PUSH2 0x7CD JUMPI DUP1 PUSH1 0x1F LT PUSH2 0x7A2 JUMPI PUSH2 0x100 DUP1 DUP4 SLOAD DIV MUL DUP4 MSTORE SWAP2 PUSH1 0x20 ADD SWAP2 PUSH2 0x7CD JUMP JUMPDEST DUP3 ADD SWAP2 SWAP1 PUSH1 0x0 MSTORE PUSH1 0x20 PUSH1 0x0 KECCAK256 SWAP1 JUMPDEST DUP2 SLOAD DUP2 MSTORE SWAP1 PUSH1 0x1 ADD SWAP1 PUSH1 0x20 ADD DUP1 DUP4 GT PUSH2 0x7B0 JUMPI DUP3 SWAP1 SUB PUSH1 0x1F AND DUP3 ADD SWAP2 JUMPDEST POP POP POP POP POP SWAP1 POP SWAP1 JUMP JUMPDEST PUSH1 0x0 PUSH1 0x14 SWAP1 SLOAD SWAP1 PUSH2 0x100 EXP SWAP1 DIV PUSH1 0xFF AND ISZERO PUSH2 0x81E JUMPI PUSH1 0x40 MLOAD PUSH32 0xF2D1DFA100000000000000000000000000000000000000000000000000000000 DUP2 MSTORE PUSH1 0x4 ADD PUSH1 0x40 MLOAD DUP1 SWAP2 SUB SWAP1 REVERT JUMPDEST PUSH1 0x0 CALLVALUE GT PUSH2 0x858 JUMPI PUSH1 0x40 MLOAD PUSH32 0xBCEE5A8500000000000000000000000000000000000000000000000000000000 DUP2 MSTORE PUSH1 0x4 ADD PUSH1 0x40 MLOAD DUP1 SWAP2 SUB SWAP1 REVERT JUMPDEST CALLVALUE PUSH1 0x1 DUP3 PUSH1 0x40 MLOAD PUSH2 0x869 SWAP2 SWAP1 PUSH2 0xCB0 JUMP JUMPDEST SWAP1 DUP2 MSTORE PUSH1 0x20 ADD PUSH1 0x40 MLOAD DUP1 SWAP2 SUB SWAP1 KECCAK256 PUSH1 0x0 DUP3 DUP3 SLOAD PUSH2 0x886 SWAP2 SWAP1 PUSH2 0xE03 JUMP JUMPDEST SWAP3 POP POP DUP2 SWAP1 SSTORE POP CALLVALUE PUSH1 0x2 PUSH1 0x0 CALLER PUSH20 0xFFFFFFFFFFFFFFFFFFFFFFFFFFFFFFFFFFFFFFFF AND PUSH20 0xFFFFFFFFFFFFFFFFFFFFFFFFFFFFFFFFFFFFFFFF AND DUP2 MSTORE PUSH1 0x20 ADD SWAP1 DUP2 MSTORE PUSH1 0x20 ADD PUSH1 0x0 KECCAK256 DUP3 PUSH1 0x40 MLOAD PUSH2 0x8DB SWAP2 SWAP1 PUSH2 0xCB0 JUMP JUMPDEST SWAP1 DUP2 MSTORE PUSH1 0x20 ADD PUSH1 0x40 MLOAD DUP1 SWAP2 SUB SWAP1 KECCAK256 PUSH1 0x0 DUP3 DUP3 SLOAD PUSH2 0x8F8 SWAP2 SWAP1 PUSH2 0xE03 JUMP JUMPDEST SWAP3 POP POP DUP2 SWAP1 SSTORE POP POP JUMP JUMPDEST PUSH1 0x0 PUSH1 0x14 SWAP1 SLOAD SWAP1 PUSH2 0x100 EXP SWAP1 DIV PUSH1 0xFF AND DUP2 JUMP JUMPDEST PUSH1 0x3 DUP1 SLOAD PUSH2 0x922 SWAP1 PUSH2 0xF6E JUMP JUMPDEST DUP1 PUSH1 0x1F ADD PUSH1 0x20 DUP1 SWAP2 DIV MUL PUSH1 0x20 ADD PUSH1 0x40 MLOAD SWAP1 DUP2 ADD PUSH1 0x40 MSTORE DUP1 SWAP3 SWAP2 SWAP1 DUP2 DUP2 MSTORE PUSH1 0x20 ADD DUP3 DUP1 SLOAD PUSH2 0x94E SWAP1 PUSH2 0xF6E JUMP JUMPDEST DUP1 ISZERO PUSH2 0x99B JUMPI DUP1 PUSH1 0x1F LT PUSH2 0x970 JUMPI PUSH2 0x100 DUP1 DUP4 SLOAD DIV MUL DUP4 MSTORE SWAP2 PUSH1 0x20 ADD SWAP2 PUSH2 0x99B JUMP JUMPDEST DUP3 ADD SWAP2 SWAP1 PUSH1 0x0 MSTORE PUSH1 0x20 PUSH1 0x0 KECCAK256 SWAP1 JUMPDEST DUP2 SLOAD DUP2 MSTORE SWAP1 PUSH1 0x1 ADD SWAP1 PUSH1 0x20 ADD DUP1 DUP4 GT PUSH2 0x97E JUMPI DUP3 SWAP1 SUB PUSH1 0x1F AND DUP3 ADD SWAP2 JUMPDEST POP POP POP POP POP DUP2 JUMP JUMPDEST DUP3 DUP1 SLOAD PUSH2 0x9AF SWAP1 PUSH2 0xF6E JUMP JUMPDEST SWAP1 PUSH1 0x0 MSTORE PUSH1 0x20 PUSH1 0x0 KECCAK256 SWAP1 PUSH1 0x1F ADD PUSH1 0x20 SWAP1 DIV DUP2 ADD SWAP3 DUP3 PUSH2 0x9D1 JUMPI PUSH1 0x0 DUP6 SSTORE PUSH2 0xA18 JUMP JUMPDEST DUP3 PUSH1 0x1F LT PUSH2 0x9EA JUMPI DUP1 MLOAD PUSH1 0xFF NOT AND DUP4 DUP1 ADD OR DUP6 SSTORE PUSH2 0xA18 JUMP JUMPDEST DUP3 DUP1 ADD PUSH1 0x1 ADD DUP6 SSTORE DUP3 ISZERO PUSH2 0xA18 JUMPI SWAP2 DUP3 ADD JUMPDEST DUP3 DUP2 GT ISZERO PUSH2 0xA17 JUMPI DUP3 MLOAD DUP3 SSTORE SWAP2 PUSH1 0x20 ADD SWAP2 SWAP1 PUSH1 0x1 ADD SWAP1 PUSH2 0x9FC JUMP JUMPDEST JUMPDEST POP SWAP1 POP PUSH2 0xA25 SWAP2 SWAP1 PUSH2 0xA29 JUMP JUMPDEST POP SWAP1 JUMP JUMPDEST JUMPDEST DUP1 DUP3 GT ISZERO PUSH2 0xA42 JUMPI PUSH1 0x0 DUP2 PUSH1 0x0 SWAP1 SSTORE POP PUSH1 0x1 ADD PUSH2 0xA2A JUMP JUMPDEST POP SWAP1 JUMP JUMPDEST PUSH1 0x0 PUSH2 0xA59 PUSH2 0xA54 DUP5 PUSH2 0xD8B JUMP JUMPDEST PUSH2 0xD66 JUMP JUMPDEST SWAP1 POP DUP3 DUP2 MSTORE PUSH1 0x20 DUP2 ADD DUP5 DUP5 DUP5 ADD GT ISZERO PUSH2 0xA75 JUMPI PUSH2 0xA74 PUSH2 0x1092 JUMP JUMPDEST JUMPDEST PUSH2 0xA80 DUP5 DUP3 DUP6 PUSH2 0xF2C JUMP JUMPDEST POP SWAP4 SWAP3 POP POP POP JUMP JUMPDEST PUSH1 0x0 DUP3 PUSH1 0x1F DUP4 ADD SLT PUSH2 0xA9D JUMPI PUSH2 0xA9C PUSH2 0x108D JUMP JUMPDEST JUMPDEST DUP2 CALLDATALOAD PUSH2 0xAAD DUP5 DUP3 PUSH1 0x20 DUP7 ADD PUSH2 0xA46 JUMP JUMPDEST SWAP2 POP POP SWAP3 SWAP2 POP POP JUMP JUMPDEST PUSH1 0x0 PUSH1 0x20 DUP3 DUP5 SUB SLT ISZERO PUSH2 0xACC JUMPI PUSH2 0xACB PUSH2 0x109C JUMP JUMPDEST JUMPDEST PUSH1 0x0 DUP3 ADD CALLDATALOAD PUSH8 0xFFFFFFFFFFFFFFFF DUP2 GT ISZERO PUSH2 0xAEA JUMPI PUSH2 0xAE9 PUSH2 0x1097 JUMP JUMPDEST JUMPDEST PUSH2 0xAF6 DUP5 DUP3 DUP6 ADD PUSH2 0xA88 JUMP JUMPDEST SWAP2 POP POP SWAP3 SWAP2 POP POP JUMP JUMPDEST PUSH1 0x0 DUP1 PUSH1 0x40 DUP4 DUP6 SUB SLT ISZERO PUSH2 0xB16 JUMPI PUSH2 0xB15 PUSH2 0x109C JUMP JUMPDEST JUMPDEST PUSH1 0x0 DUP4 ADD CALLDATALOAD PUSH8 0xFFFFFFFFFFFFFFFF DUP2 GT ISZERO PUSH2 0xB34 JUMPI PUSH2 0xB33 PUSH2 0x1097 JUMP JUMPDEST JUMPDEST PUSH2 0xB40 DUP6 DUP3 DUP7 ADD PUSH2 0xA88 JUMP JUMPDEST SWAP3 POP POP PUSH1 0x20 DUP4 ADD CALLDATALOAD PUSH8 0xFFFFFFFFFFFFFFFF DUP2 GT ISZERO PUSH2 0xB61 JUMPI PUSH2 0xB60 PUSH2 0x1097 JUMP JUMPDEST JUMPDEST PUSH2 0xB6D DUP6 DUP3 DUP7 ADD PUSH2 0xA88 JUMP JUMPDEST SWAP2 POP POP SWAP3 POP SWAP3 SWAP1 POP JUMP JUMPDEST PUSH2 0xB80 DUP2 PUSH2 0xEE4 JUMP JUMPDEST DUP3 MSTORE POP POP JUMP JUMPDEST PUSH2 0xB8F DUP2 PUSH2 0xEF6 JUMP JUMPDEST DUP3 MSTORE POP POP JUMP JUMPDEST PUSH1 0x0 PUSH2 0xBA0 DUP3 PUSH2 0xDD1 JUMP JUMPDEST PUSH2 0xBAA DUP2 DUP6 PUSH2 0xDE7 JUMP JUMPDEST SWAP4 POP PUSH2 0xBBA DUP2 DUP6 PUSH1 0x20 DUP7 ADD PUSH2 0xF3B JUMP JUMPDEST PUSH2 0xBC3 DUP2 PUSH2 0x10A1 JUMP JUMPDEST DUP5 ADD SWAP2 POP POP SWAP3 SWAP2 POP POP JUMP JUMPDEST PUSH1 0x0 PUSH2 0xBD9 DUP3 PUSH2 0xDD1 JUMP JUMPDEST PUSH2 0xBE3 DUP2 DUP6 PUSH2 0xDF8 JUMP JUMPDEST SWAP4 POP PUSH2 0xBF3 DUP2 DUP6 PUSH1 0x20 DUP7 ADD PUSH2 0xF3B JUMP JUMPDEST DUP1 DUP5 ADD SWAP2 POP POP SWAP3 SWAP2 POP POP JUMP JUMPDEST PUSH1 0x0 DUP2 SLOAD PUSH2 0xC0C DUP2 PUSH2 0xF6E JUMP JUMPDEST PUSH2 0xC16 DUP2 DUP7 PUSH2 0xDF8 JUMP JUMPDEST SWAP5 POP PUSH1 0x1 DUP3 AND PUSH1 0x0 DUP2 EQ PUSH2 0xC31 JUMPI PUSH1 0x1 DUP2 EQ PUSH2 0xC42 JUMPI PUSH2 0xC75 JUMP JUMPDEST PUSH1 0xFF NOT DUP4 AND DUP7 MSTORE DUP2 DUP7 ADD SWAP4 POP PUSH2 0xC75 JUMP JUMPDEST PUSH2 0xC4B DUP6 PUSH2 0xDBC JUMP JUMPDEST PUSH1 0x0 JUMPDEST DUP4 DUP2 LT ISZERO PUSH2 0xC6D JUMPI DUP2 SLOAD DUP2 DUP10 ADD MSTORE PUSH1 0x1 DUP3 ADD SWAP2 POP PUSH1 0x20 DUP2 ADD SWAP1 POP PUSH2 0xC4E JUMP JUMPDEST DUP4 DUP9 ADD SWAP6 POP POP POP JUMPDEST POP POP POP SWAP3 SWAP2 POP POP JUMP JUMPDEST PUSH1 0x0 PUSH2 0xC8B PUSH1 0x0 DUP4 PUSH2 0xDDC JUMP JUMPDEST SWAP2 POP PUSH2 0xC96 DUP3 PUSH2 0x10B2 JUMP JUMPDEST PUSH1 0x0 DUP3 ADD SWAP1 POP SWAP2 SWAP1 POP JUMP JUMPDEST PUSH2 0xCAA DUP2 PUSH2 0xF22 JUMP JUMPDEST DUP3 MSTORE POP POP JUMP JUMPDEST PUSH1 0x0 PUSH2 0xCBC DUP3 DUP5 PUSH2 0xBCE JUMP JUMPDEST SWAP2 POP DUP2 SWAP1 POP SWAP3 SWAP2 POP POP JUMP JUMPDEST PUSH1 0x0 PUSH2 0xCD3 DUP3 DUP5 PUSH2 0xBFF JUMP JUMPDEST SWAP2 POP DUP2 SWAP1 POP SWAP3 SWAP2 POP POP JUMP JUMPDEST PUSH1 0x0 PUSH2 0xCE9 DUP3 PUSH2 0xC7E JUMP JUMPDEST SWAP2 POP DUP2 SWAP1 POP SWAP2 SWAP1 POP JUMP JUMPDEST PUSH1 0x0 PUSH1 0x20 DUP3 ADD SWAP1 POP PUSH2 0xD08 PUSH1 0x0 DUP4 ADD DUP5 PUSH2 0xB77 JUMP JUMPDEST SWAP3 SWAP2 POP POP JUMP JUMPDEST PUSH1 0x0 PUSH1 0x20 DUP3 ADD SWAP1 POP PUSH2 0xD23 PUSH1 0x0 DUP4 ADD DUP5 PUSH2 0xB86 JUMP JUMPDEST SWAP3 SWAP2 POP POP JUMP JUMPDEST PUSH1 0x0 PUSH1 0x20 DUP3 ADD SWAP1 POP DUP2 DUP2 SUB PUSH1 0x0 DUP4 ADD MSTORE PUSH2 0xD43 DUP2 DUP5 PUSH2 0xB95 JUMP JUMPDEST SWAP1 POP SWAP3 SWAP2 POP POP JUMP JUMPDEST PUSH1 0x0 PUSH1 0x20 DUP3 ADD SWAP1 POP PUSH2 0xD60 PUSH1 0x0 DUP4 ADD DUP5 PUSH2 0xCA1 JUMP JUMPDEST SWAP3 SWAP2 POP POP JUMP JUMPDEST PUSH1 0x0 PUSH2 0xD70 PUSH2 0xD81 JUMP JUMPDEST SWAP1 POP PUSH2 0xD7C DUP3 DUP3 PUSH2 0xFA0 JUMP JUMPDEST SWAP2 SWAP1 POP JUMP JUMPDEST PUSH1 0x0 PUSH1 0x40 MLOAD SWAP1 POP SWAP1 JUMP JUMPDEST PUSH1 0x0 PUSH8 0xFFFFFFFFFFFFFFFF DUP3 GT ISZERO PUSH2 0xDA6 JUMPI PUSH2 0xDA5 PUSH2 0x105E JUMP JUMPDEST JUMPDEST PUSH2 0xDAF DUP3 PUSH2 0x10A1 JUMP JUMPDEST SWAP1 POP PUSH1 0x20 DUP2 ADD SWAP1 POP SWAP2 SWAP1 POP JUMP JUMPDEST PUSH1 0x0 DUP2 SWAP1 POP DUP2 PUSH1 0x0 MSTORE PUSH1 0x20 PUSH1 0x0 KECCAK256 SWAP1 POP SWAP2 SWAP1 POP JUMP JUMPDEST PUSH1 0x0 DUP2 MLOAD SWAP1 POP SWAP2 SWAP1 POP JUMP JUMPDEST PUSH1 0x0 DUP2 SWAP1 POP SWAP3 SWAP2 POP POP JUMP JUMPDEST PUSH1 0x0 DUP3 DUP3 MSTORE PUSH1 0x20 DUP3 ADD SWAP1 POP SWAP3 SWAP2 POP POP JUMP JUMPDEST PUSH1 0x0 DUP2 SWAP1 POP SWAP3 SWAP2 POP POP JUMP JUMPDEST PUSH1 0x0 PUSH2 0xE0E DUP3 PUSH2 0xF22 JUMP JUMPDEST SWAP2 POP PUSH2 0xE19 DUP4 PUSH2 0xF22 JUMP JUMPDEST SWAP3 POP DUP3 PUSH32 0xFFFFFFFFFFFFFFFFFFFFFFFFFFFFFFFFFFFFFFFFFFFFFFFFFFFFFFFFFFFFFFFF SUB DUP3 GT ISZERO PUSH2 0xE4E JUMPI PUSH2 0xE4D PUSH2 0xFD1 JUMP JUMPDEST JUMPDEST DUP3 DUP3 ADD SWAP1 POP SWAP3 SWAP2 POP POP JUMP JUMPDEST PUSH1 0x0 PUSH2 0xE64 DUP3 PUSH2 0xF22 JUMP JUMPDEST SWAP2 POP PUSH2 0xE6F DUP4 PUSH2 0xF22 JUMP JUMPDEST SWAP3 POP DUP3 PUSH2 0xE7F JUMPI PUSH2 0xE7E PUSH2 0x1000 JUMP JUMPDEST JUMPDEST DUP3 DUP3 DIV SWAP1 POP SWAP3 SWAP2 POP POP JUMP JUMPDEST PUSH1 0x0 PUSH2 0xE95 DUP3 PUSH2 0xF22 JUMP JUMPDEST SWAP2 POP PUSH2 0xEA0 DUP4 PUSH2 0xF22 JUMP JUMPDEST SWAP3 POP DUP2 PUSH32 0xFFFFFFFFFFFFFFFFFFFFFFFFFFFFFFFFFFFFFFFFFFFFFFFFFFFFFFFFFFFFFFFF DIV DUP4 GT DUP3 ISZERO ISZERO AND ISZERO PUSH2 0xED9 JUMPI PUSH2 0xED8 PUSH2 0xFD1 JUMP JUMPDEST JUMPDEST DUP3 DUP3 MUL SWAP1 POP SWAP3 SWAP2 POP POP JUMP JUMPDEST PUSH1 0x0 PUSH2 0xEEF DUP3 PUSH2 0xF02 JUMP JUMPDEST SWAP1 POP SWAP2 SWAP1 POP JUMP JUMPDEST PUSH1 0x0 DUP2 ISZERO ISZERO SWAP1 POP SWAP2 SWAP1 POP JUMP JUMPDEST PUSH1 0x0 PUSH20 0xFFFFFFFFFFFFFFFFFFFFFFFFFFFFFFFFFFFFFFFF DUP3 AND SWAP1 POP SWAP2 SWAP1 POP JUMP JUMPDEST PUSH1 0x0 DUP2 SWAP1 POP SWAP2 SWAP1 POP JUMP JUMPDEST DUP3 DUP2 DUP4 CALLDATACOPY PUSH1 0x0 DUP4 DUP4 ADD MSTORE POP POP POP JUMP JUMPDEST PUSH1 0x0 JUMPDEST DUP4 DUP2 LT ISZERO PUSH2 0xF59 JUMPI DUP1 DUP3 ADD MLOAD DUP2 DUP5 ADD MSTORE PUSH1 0x20 DUP2 ADD SWAP1 POP PUSH2 0xF3E JUMP JUMPDEST DUP4 DUP2 GT ISZERO PUSH2 0xF68 JUMPI PUSH1 0x0 DUP5 DUP5 ADD MSTORE JUMPDEST POP POP POP POP JUMP JUMPDEST PUSH1 0x0 PUSH1 0x2 DUP3 DIV SWAP1 POP PUSH1 0x1 DUP3 AND DUP1 PUSH2 0xF86 JUMPI PUSH1 0x7F DUP3 AND SWAP2 POP JUMPDEST PUSH1 0x20 DUP3 LT DUP2 EQ ISZERO PUSH2 0xF9A JUMPI PUSH2 0xF99 PUSH2 0x102F JUMP JUMPDEST JUMPDEST POP SWAP2 SWAP1 POP JUMP JUMPDEST PUSH2 0xFA9 DUP3 PUSH2 0x10A1 JUMP JUMPDEST DUP2 ADD DUP2 DUP2 LT PUSH8 0xFFFFFFFFFFFFFFFF DUP3 GT OR ISZERO PUSH2 0xFC8 JUMPI PUSH2 0xFC7 PUSH2 0x105E JUMP JUMPDEST JUMPDEST DUP1 PUSH1 0x40 MSTORE POP POP POP JUMP JUMPDEST PUSH32 0x4E487B7100000000000000000000000000000000000000000000000000000000 PUSH1 0x0 MSTORE PUSH1 0x11 PUSH1 0x4 MSTORE PUSH1 0x24 PUSH1 0x0 REVERT JUMPDEST PUSH32 0x4E487B7100000000000000000000000000000000000000000000000000000000 PUSH1 0x0 MSTORE PUSH1 0x12 PUSH1 0x4 MSTORE PUSH1 0x24 PUSH1 0x0 REVERT JUMPDEST PUSH32 0x4E487B7100000000000000000000000000000000000000000000000000000000 PUSH1 0x0 MSTORE PUSH1 0x22 PUSH1 0x4 MSTORE PUSH1 0x24 PUSH1 0x0 REVERT JUMPDEST PUSH32 0x4E487B7100000000000000000000000000000000000000000000000000000000 PUSH1 0x0 MSTORE PUSH1 0x41 PUSH1 0x4 MSTORE PUSH1 0x24 PUSH1 0x0 REVERT JUMPDEST PUSH1 0x0 DUP1 REVERT JUMPDEST PUSH1 0x0 DUP1 REVERT JUMPDEST PUSH1 0x0 DUP1 REVERT JUMPDEST PUSH1 0x0 DUP1 REVERT JUMPDEST PUSH1 0x0 PUSH1 0x1F NOT PUSH1 0x1F DUP4 ADD AND SWAP1 POP SWAP2 SWAP1 POP JUMP JUMPDEST POP JUMP INVALID LOG2 PUSH5 0x6970667358 0x22 SLT KECCAK256 DIV 0xF7 0xE8 SWAP4 0xCB PUSH26 0x4AB67CD79DAF831928D3FEBF9D8E8C70C15EB2FD530F8894FB74 PUSH5 0x736F6C6343 STOP ADDMOD SDIV STOP CALLER "
        },
        "gasEstimates": {
          "creation": {
            "codeDepositCost": "866200",
            "executionCost": "infinite",
            "totalCost": "infinite"
          },
          "external": {
            "bets(string)": "infinite",
            "createBet(string)": "infinite",
            "electionFinished()": "2587",
            "getLooser()": "infinite",
            "getWinner()": "infinite",
            "looser()": "infinite",
            "oracle()": "2578",
            "reportResultsOfElection(string,string)": "infinite",
            "winner()": "infinite",
            "withdrawGain()": "infinite"
          }
        },
        "methodIdentifiers": {
          "bets(string)": "80f3d9d5",
          "createBet(string)": "b3a23578",
          "electionFinished()": "beab6e7e",
          "getLooser()": "b2089d9d",
          "getWinner()": "8e7ea5b2",
          "looser()": "640e48f6",
          "oracle()": "7dc0d1d0",
          "reportResultsOfElection(string,string)": "25d64246",
          "winner()": "dfbf53ae",
          "withdrawGain()": "2b539c86"
        }
      },
      "storageLayout": {
        "storage": [
          {
            "astId": 15,
            "contract": "contracts/PredictionMarket.sol:PredictionMarket",
            "label": "oracle",
            "offset": 0,
            "slot": "0",
            "type": "t_address"
          },
          {
            "astId": 17,
            "contract": "contracts/PredictionMarket.sol:PredictionMarket",
            "label": "electionFinished",
            "offset": 20,
            "slot": "0",
            "type": "t_bool"
          },
          {
            "astId": 21,
            "contract": "contracts/PredictionMarket.sol:PredictionMarket",
            "label": "bets",
            "offset": 0,
            "slot": "1",
            "type": "t_mapping(t_string_memory_ptr,t_uint256)"
          },
          {
            "astId": 27,
            "contract": "contracts/PredictionMarket.sol:PredictionMarket",
            "label": "betsPerPerson",
            "offset": 0,
            "slot": "2",
            "type": "t_mapping(t_address,t_mapping(t_string_memory_ptr,t_uint256))"
          },
          {
            "astId": 43,
            "contract": "contracts/PredictionMarket.sol:PredictionMarket",
            "label": "winner",
            "offset": 0,
            "slot": "3",
            "type": "t_string_storage"
          },
          {
            "astId": 45,
            "contract": "contracts/PredictionMarket.sol:PredictionMarket",
            "label": "looser",
            "offset": 0,
            "slot": "4",
            "type": "t_string_storage"
          }
        ],
        "types": {
          "t_address": {
            "encoding": "inplace",
            "label": "address",
            "numberOfBytes": "20"
          },
          "t_bool": {
            "encoding": "inplace",
            "label": "bool",
            "numberOfBytes": "1"
          },
          "t_mapping(t_address,t_mapping(t_string_memory_ptr,t_uint256))": {
            "encoding": "mapping",
            "key": "t_address",
            "label": "mapping(address => mapping(string => uint256))",
            "numberOfBytes": "32",
            "value": "t_mapping(t_string_memory_ptr,t_uint256)"
          },
          "t_mapping(t_string_memory_ptr,t_uint256)": {
            "encoding": "mapping",
            "key": "t_string_memory_ptr",
            "label": "mapping(string => uint256)",
            "numberOfBytes": "32",
            "value": "t_uint256"
          },
          "t_string_memory_ptr": {
            "encoding": "bytes",
            "label": "string",
            "numberOfBytes": "32"
          },
          "t_string_storage": {
            "encoding": "bytes",
            "label": "string",
            "numberOfBytes": "32"
          },
          "t_uint256": {
            "encoding": "inplace",
            "label": "uint256",
            "numberOfBytes": "32"
          }
        }
      },
      "userdoc": {
        "kind": "user",
        "methods": {},
        "version": 1
      }
    }
  }
}