{
  "_format": "hh-sol-artifact-1",
  "contractName": "PredictionMarket",
  "sourceName": "contracts/PredictionMarket.sol",
  "abi": [
    {
      "inputs": [
        {
          "internalType": "address",
          "name": "_oracle",
          "type": "address"
        }
      ],
      "stateMutability": "nonpayable",
      "type": "constructor"
    },
    {
      "inputs": [],
      "name": "PredictionMarket__CannotPlaceABet",
      "type": "error"
    },
    {
      "inputs": [],
      "name": "PredictionMarket__CannotWithdrawBeforeElectionFinishes",
      "type": "error"
    },
    {
      "inputs": [],
      "name": "PredictionMarket__DidNotPlaceBetOnWinner",
      "type": "error"
    },
    {
      "inputs": [],
      "name": "PredictionMarket__NotEnoughETHToPlaceABet",
      "type": "error"
    },
    {
      "inputs": [],
      "name": "PredictionMarket__OnlyRegisteredOracleAllowedToReturnResults",
      "type": "error"
    },
    {
      "inputs": [],
      "name": "PredictionMarket__TransferFailed",
      "type": "error"
    },
    {
      "inputs": [
        {
          "internalType": "string",
          "name": "",
          "type": "string"
        }
      ],
      "name": "bets",
      "outputs": [
        {
          "internalType": "uint256",
          "name": "",
          "type": "uint256"
        }
      ],
      "stateMutability": "view",
      "type": "function"
    },
    {
      "inputs": [
        {
          "internalType": "string",
          "name": "_side",
          "type": "string"
        }
      ],
      "name": "createBet",
      "outputs": [],
      "stateMutability": "payable",
      "type": "function"
    },
    {
      "inputs": [],
      "name": "electionFinished",
      "outputs": [
        {
          "internalType": "bool",
          "name": "",
          "type": "bool"
        }
      ],
      "stateMutability": "view",
      "type": "function"
    },
    {
      "inputs": [],
      "name": "getLooser",
      "outputs": [
        {
          "internalType": "string",
          "name": "",
          "type": "string"
        }
      ],
      "stateMutability": "view",
      "type": "function"
    },
    {
      "inputs": [],
      "name": "getWinner",
      "outputs": [
        {
          "internalType": "string",
          "name": "",
          "type": "string"
        }
      ],
      "stateMutability": "view",
      "type": "function"
    },
    {
      "inputs": [],
      "name": "looser",
      "outputs": [
        {
          "internalType": "string",
          "name": "",
          "type": "string"
        }
      ],
      "stateMutability": "view",
      "type": "function"
    },
    {
      "inputs": [],
      "name": "oracle",
      "outputs": [
        {
          "internalType": "address",
          "name": "",
          "type": "address"
        }
      ],
      "stateMutability": "view",
      "type": "function"
    },
    {
      "inputs": [
        {
          "internalType": "string",
          "name": "_winner",
          "type": "string"
        },
        {
          "internalType": "string",
          "name": "_looser",
          "type": "string"
        }
      ],
      "name": "reportResultsOfElection",
      "outputs": [],
      "stateMutability": "nonpayable",
      "type": "function"
    },
    {
      "inputs": [],
      "name": "winner",
      "outputs": [
        {
          "internalType": "string",
          "name": "",
          "type": "string"
        }
      ],
      "stateMutability": "view",
      "type": "function"
    },
    {
      "inputs": [],
      "name": "withdrawGain",
      "outputs": [],
      "stateMutability": "nonpayable",
      "type": "function"
    }
  ],
  "bytecode": "0x60806040523480156200001157600080fd5b506040516200122f3803806200122f8339818101604052810190620000379190620000af565b806000806101000a81548173ffffffffffffffffffffffffffffffffffffffff021916908373ffffffffffffffffffffffffffffffffffffffff16021790555060008060146101000a81548160ff0219169083151502179055505062000134565b600081519050620000a9816200011a565b92915050565b600060208284031215620000c857620000c762000115565b5b6000620000d88482850162000098565b91505092915050565b6000620000ee82620000f5565b9050919050565b600073ffffffffffffffffffffffffffffffffffffffff82169050919050565b600080fd5b6200012581620000e1565b81146200013157600080fd5b50565b6110eb80620001446000396000f3fe6080604052600436106100915760003560e01c80638e7ea5b2116100595780638e7ea5b214610169578063b2089d9d14610194578063b3a23578146101bf578063beab6e7e146101db578063dfbf53ae1461020657610091565b806325d64246146100965780632b539c86146100bf578063640e48f6146100d65780637dc0d1d01461010157806380f3d9d51461012c575b600080fd5b3480156100a257600080fd5b506100bd60048036038101906100b89190610aff565b610231565b005b3480156100cb57600080fd5b506100d4610303565b005b3480156100e257600080fd5b506100eb6105d3565b6040516100f89190610d29565b60405180910390f35b34801561010d57600080fd5b50610116610661565b6040516101239190610cf3565b60405180910390f35b34801561013857600080fd5b50610153600480360381019061014e9190610ab6565b610685565b6040516101609190610d4b565b60405180910390f35b34801561017557600080fd5b5061017e6106b3565b60405161018b9190610d29565b60405180910390f35b3480156101a057600080fd5b506101a9610745565b6040516101b69190610d29565b60405180910390f35b6101d960048036038101906101d49190610ab6565b6107d7565b005b3480156101e757600080fd5b506101f0610902565b6040516101fd9190610d0e565b60405180910390f35b34801561021257600080fd5b5061021b610915565b6040516102289190610d29565b60405180910390f35b60008054906101000a900473ffffffffffffffffffffffffffffffffffffffff1673ffffffffffffffffffffffffffffffffffffffff163373ffffffffffffffffffffffffffffffffffffffff16146102b6576040517f180a70c200000000000000000000000000000000000000000000000000000000815260040160405180910390fd5b81600390805190602001906102cc9291906109a3565b5080600490805190602001906102e39291906109a3565b506001600060146101000a81548160ff0219169083151502179055505050565b6000600260003373ffffffffffffffffffffffffffffffffffffffff1673ffffffffffffffffffffffffffffffffffffffff16815260200190815260200160002060036040516103539190610cc7565b90815260200160405180910390205490506000811161039e576040517f6625fed400000000000000000000000000000000000000000000000000000000815260040160405180910390fd5b600060149054906101000a900460ff166103e4576040517fbbbc58ae00000000000000000000000000000000000000000000000000000000815260040160405180910390fd5b6000600160036040516103f79190610cc7565b90815260200160405180910390205482600160046040516104189190610cc7565b908152602001604051809103902054600160036040516104389190610cc7565b9081526020016040518091039020546104519190610e03565b61045b9190610e8a565b6104659190610e59565b90506000600260003373ffffffffffffffffffffffffffffffffffffffff1673ffffffffffffffffffffffffffffffffffffffff16815260200190815260200160002060036040516104b79190610cc7565b9081526020016040518091039020819055506000600260003373ffffffffffffffffffffffffffffffffffffffff1673ffffffffffffffffffffffffffffffffffffffff16815260200190815260200160002060046040516105199190610cc7565b90815260200160405180910390208190555060003373ffffffffffffffffffffffffffffffffffffffff168260405161055190610cde565b60006040518083038185875af1925050503d806000811461058e576040519150601f19603f3d011682016040523d82523d6000602084013e610593565b606091505b50509050806105ce576040517f6ef66bc400000000000000000000000000000000000000000000000000000000815260040160405180910390fd5b505050565b600480546105e090610f6e565b80601f016020809104026020016040519081016040528092919081815260200182805461060c90610f6e565b80156106595780601f1061062e57610100808354040283529160200191610659565b820191906000526020600020905b81548152906001019060200180831161063c57829003601f168201915b505050505081565b60008054906101000a900473ffffffffffffffffffffffffffffffffffffffff1681565b6001818051602081018201805184825260208301602085012081835280955050505050506000915090505481565b6060600380546106c290610f6e565b80601f01602080910402602001604051908101604052809291908181526020018280546106ee90610f6e565b801561073b5780601f106107105761010080835404028352916020019161073b565b820191906000526020600020905b81548152906001019060200180831161071e57829003601f168201915b5050505050905090565b60606004805461075490610f6e565b80601f016020809104026020016040519081016040528092919081815260200182805461078090610f6e565b80156107cd5780601f106107a2576101008083540402835291602001916107cd565b820191906000526020600020905b8154815290600101906020018083116107b057829003601f168201915b5050505050905090565b600060149054906101000a900460ff161561081e576040517ff2d1dfa100000000000000000000000000000000000000000000000000000000815260040160405180910390fd5b60003411610858576040517fbcee5a8500000000000000000000000000000000000000000000000000000000815260040160405180910390fd5b346001826040516108699190610cb0565b908152602001604051809103902060008282546108869190610e03565b9250508190555034600260003373ffffffffffffffffffffffffffffffffffffffff1673ffffffffffffffffffffffffffffffffffffffff168152602001908152602001600020826040516108db9190610cb0565b908152602001604051809103902060008282546108f89190610e03565b9250508190555050565b600060149054906101000a900460ff1681565b6003805461092290610f6e565b80601f016020809104026020016040519081016040528092919081815260200182805461094e90610f6e565b801561099b5780601f106109705761010080835404028352916020019161099b565b820191906000526020600020905b81548152906001019060200180831161097e57829003601f168201915b505050505081565b8280546109af90610f6e565b90600052602060002090601f0160209004810192826109d15760008555610a18565b82601f106109ea57805160ff1916838001178555610a18565b82800160010185558215610a18579182015b82811115610a175782518255916020019190600101906109fc565b5b509050610a259190610a29565b5090565b5b80821115610a42576000816000905550600101610a2a565b5090565b6000610a59610a5484610d8b565b610d66565b905082815260208101848484011115610a7557610a74611092565b5b610a80848285610f2c565b509392505050565b600082601f830112610a9d57610a9c61108d565b5b8135610aad848260208601610a46565b91505092915050565b600060208284031215610acc57610acb61109c565b5b600082013567ffffffffffffffff811115610aea57610ae9611097565b5b610af684828501610a88565b91505092915050565b60008060408385031215610b1657610b1561109c565b5b600083013567ffffffffffffffff811115610b3457610b33611097565b5b610b4085828601610a88565b925050602083013567ffffffffffffffff811115610b6157610b60611097565b5b610b6d85828601610a88565b9150509250929050565b610b8081610ee4565b82525050565b610b8f81610ef6565b82525050565b6000610ba082610dd1565b610baa8185610de7565b9350610bba818560208601610f3b565b610bc3816110a1565b840191505092915050565b6000610bd982610dd1565b610be38185610df8565b9350610bf3818560208601610f3b565b80840191505092915050565b60008154610c0c81610f6e565b610c168186610df8565b94506001821660008114610c315760018114610c4257610c75565b60ff19831686528186019350610c75565b610c4b85610dbc565b60005b83811015610c6d57815481890152600182019150602081019050610c4e565b838801955050505b50505092915050565b6000610c8b600083610ddc565b9150610c96826110b2565b600082019050919050565b610caa81610f22565b82525050565b6000610cbc8284610bce565b915081905092915050565b6000610cd38284610bff565b915081905092915050565b6000610ce982610c7e565b9150819050919050565b6000602082019050610d086000830184610b77565b92915050565b6000602082019050610d236000830184610b86565b92915050565b60006020820190508181036000830152610d438184610b95565b905092915050565b6000602082019050610d606000830184610ca1565b92915050565b6000610d70610d81565b9050610d7c8282610fa0565b919050565b6000604051905090565b600067ffffffffffffffff821115610da657610da561105e565b5b610daf826110a1565b9050602081019050919050565b60008190508160005260206000209050919050565b600081519050919050565b600081905092915050565b600082825260208201905092915050565b600081905092915050565b6000610e0e82610f22565b9150610e1983610f22565b9250827fffffffffffffffffffffffffffffffffffffffffffffffffffffffffffffffff03821115610e4e57610e4d610fd1565b5b828201905092915050565b6000610e6482610f22565b9150610e6f83610f22565b925082610e7f57610e7e611000565b5b828204905092915050565b6000610e9582610f22565b9150610ea083610f22565b9250817fffffffffffffffffffffffffffffffffffffffffffffffffffffffffffffffff0483118215151615610ed957610ed8610fd1565b5b828202905092915050565b6000610eef82610f02565b9050919050565b60008115159050919050565b600073ffffffffffffffffffffffffffffffffffffffff82169050919050565b6000819050919050565b82818337600083830152505050565b60005b83811015610f59578082015181840152602081019050610f3e565b83811115610f68576000848401525b50505050565b60006002820490506001821680610f8657607f821691505b60208210811415610f9a57610f9961102f565b5b50919050565b610fa9826110a1565b810181811067ffffffffffffffff82111715610fc857610fc761105e565b5b80604052505050565b7f4e487b7100000000000000000000000000000000000000000000000000000000600052601160045260246000fd5b7f4e487b7100000000000000000000000000000000000000000000000000000000600052601260045260246000fd5b7f4e487b7100000000000000000000000000000000000000000000000000000000600052602260045260246000fd5b7f4e487b7100000000000000000000000000000000000000000000000000000000600052604160045260246000fd5b600080fd5b600080fd5b600080fd5b600080fd5b6000601f19601f8301169050919050565b5056fea264697066735822122004f7e893cb794ab67cd79daf831928d3febf9d8e8c70c15eb2fd530f8894fb7464736f6c63430008050033",
  "linkReferences": {},
  "deployedLinkReferences": {}
}